:020000040800F2
:100000000000022071F3020871080008730800085C
:10001000750800087708000879080008000000004B
:1000200000000000000000000000000001DC0208E9
:100030007B08000800000000A1DC020881D702084C
:10004000C1F30208C1F30208C1F30208C1F30208B8
:10005000C1F30208C1F30208C1F30208C1F30208A8
:10006000C1F30208C1F30208C1F30208C1F3020898
:10007000C1F30208C1F30208C1F30208C1F3020888
:10008000C1F30208C1F30208C1F30208C1F3020878
:10009000C1F30208C1F30208C1F30208C1F3020868
:1000A000C1F302087D080008C1F30208C1F3020889
:1000B000C1F30208C1F30208C1F30208C1F3020848
:1000C000C1F30208C1F30208C1F30208C1F3020838
:1000D000C1F30208C1F30208C1F30208C1F3020828
:1000E000C1F30208C1F3020800000000C1F30208D6
:1000F000C1F30208C1F30208C1F30208C1F3020808
:10010000C1F30208C1F30208C1F30208C1F30208F7
:10011000C1F30208C1F30208C1F30208C1F30208E7
:10012000C1F30208C1F30208C1F30208C1F30208D7
:10013000C1F30208C1F30208C1F30208C1F30208C7
:1001400000000000000000000000000000000000AF
:10015000C1F30208C1F30208C1F30208C1F30208A7
:10016000C1F30208C1F30208C1F30208C1F3020897
:10017000C1F30208C1F30208C1F302080000000045
:10018000C1F30208C1F30208C1F30208C1F3020877
:10019000C1F30208C1F30208C1F30208C1F3020867
:1001A000C1F30208C1F30208C1F30208C1F3020857
:1001B000C1F30208C1F30208C1F30208C1F3020847
:1001C000C1F30208C1F30208C1F30208C1F3020837
:1001D000C1F30208C1F30208C1F30208C1F3020827
:1001E000C1F30208C1F30208C1F30208C1F3020817
:1001F000C1F30208C1F30208C1F30208C1F3020807
:10020000C1F30208C1F30208C1F30208C1F30208F6
:10021000C1F30208C1F30208C1F30208C1F30208E6
:10022000C1F30208C1F30208C1F302080000000094
:10023000C1F30208C1F3020800000000C1F3020884
:10024000C1F30208C1F30208C1F30208C1F30208B6
:10025000C1F30208C1F30208C1F30208C1F30208A6
:10026000C1F30208C1F30208C1F30208C1F3020896
:10027000C1F30208C1F30208C1F302080000000044
:10028000C1F30208C1F30208C1F302080000000034
:0802900000000000C1F30208A8
:1002A00010B5054C237833B9044B13B10448AFF3B0
:1002B00000800123237010BDB80000200000000062
:1002C00044F4020808B5034B1BB103490348AFF3DC
:1002D000008008BD00000000BC00002044F40208BB
:1002E00010F8012B11F8013B012A28BF9A42F7D0E0
:1002F000D01A7047034613F8012B002AFBD1181AB5
:100300000138704753B94AB9002908BF00281CBFFB
:100310004FF0FF314FF0FF3000F072B9ADF1080C33
:100320006DE904CE00F006F8DDF804E0DDE9022313
:1003300004B070472DE9F047089E04468846002B1C
:100340004BD18A42154667D9B2FA82F24AB1C2F15C
:10035000200701FA02F320FA07F7954047EA03085D
:1003600094404FEA154E230CB8FBFEF71FFA85FCAC
:100370000EFB178843EA084307FB0CF1994209D9A1
:10038000EB1807F1FF3080F01B81994240F2188191
:10039000023F2B445B1AA4B2B3FBFEF00EFB1033FA
:1003A00044EA034400FB0CFCA44509D92C1900F1D4
:1003B000FF3380F00781A44540F2048102382C44C9
:1003C00040EA0740A4EB0C0400271EB1D4400023F0
:1003D000C6E900433946BDE8F0878B4209D9002EB3
:1003E00000F0EB800027C6E9000138463946BDE839
:1003F000F087B3FA83F7002F47D18B4202D38242B2
:1004000000F2FA80841A61EB030301209846002E63
:10041000E0D0C6E90048DDE702B9FFDEB2FA82F2B9
:10042000002A40F08F80491B4FEA154E1FFA85F8CD
:100430000127B1FBFEFC230C0EFB1C1143EA014318
:1004400008FB0CF1994207D9EB180CF1FF3002D2EE
:10045000994200F2CD808446591AA3B2B1FBFEF056
:100460000EFB101443EA044408FB00F8A04507D92A
:100470002C1900F1FF3302D2A04500F2B6801846D5
:10048000A4EB080440EA0C409FE7C7F1200CBB40F6
:1004900022FA0CFE4EEA030E01FA07F420FA0CF5DC
:1004A00021FA0CF34FEA1E482543B3FBF8F92C0C54
:1004B00008FB19331FFA8EFA44EA034309FB0AF4D6
:1004C0009C4202FA07F200FA07F10BD91EEB030374
:1004D00009F1FF3080F087809C4240F28480A9F1CE
:1004E000020973441B1BADB2B3FBF8F008FB1033D9
:1004F00045EA034400FB0AFAA24508D91EEB0404AE
:1005000000F1FF336BD2A24569D90238744440EA46
:100510000940A0FB0289A4EB0A044C45C2464B46A5
:1005200054D351D0002E69D0B1EB0A0564EB03041B
:1005300004FA0CFCFD40FC404CEA0505C6E90054F9
:10054000002747E7C2F1200320FA03F7954001FA9C
:1005500002F021FA03F34FEA154E3843010CB3FBC6
:10056000FEF71FFA85F80EFB173341EA034107FB3C
:1005700008F38B4204FA02F407D9691807F1FF3C2B
:100580002FD28B422DD9023F2944CB1A81B2B3FB23
:10059000FEF00EFB103341EA034100FB08F38B42EF
:1005A00007D9691800F1FF3C17D28B4215D90238E0
:1005B0002944C91A40EA07473BE73746304609E76E
:1005C0000746E7E61846FBE64145ABD2B8EB020A20
:1005D00069EB0E0201381346A4E76046E9E71846C6
:1005E00095E76746D1E781467CE702382C4447E728
:1005F000ACF1020C2B442FE7384608E73746E9E612
:10060000704700BF08B50268034B9A4200D008BD8E
:1006100001F0D2FFFBE700BF0000014072B6FEE729
:1006200000B59DB04C22002109A82EF0FAFE202230
:10063000002101A82EF0F5FE022001F065FF002345
:100640000093254BDA6A22F00102DA62DB6A03F0DA
:1006500001030093214A936923F4404343F4804308
:100660009361936903F440430093009B1B4B9B6988
:1006700013F4005FFAD0012209924FF480330A93F9
:100680000223129313931492242215921693179314
:1006900018930C23199300231A931B930DEB02005C
:1006A00000F0A8F9A0B93F230193032302934FF46C
:1006B0000063039308230493002105910691079199
:1006C000089101A800F0E6FD20B91DB05DF804FB1B
:1006D000FFF7A4FFFFF7A2FF0004005800480258EC
:1006E00008B501F03BFFFFF79BFF00F009F82EF083
:1006F000DDF82DF051F800F085F82DF061F8FEE7F7
:10070000F0B589B0002403940494059406940794EA
:10071000244BD3F8E02042F00402C3F8E020D3F8E1
:10072000E02002F004020092009AD3F8E02042F0A8
:100730008002C3F8E020D3F8E02002F080020192AA
:10074000019AD3F8E02042F00102C3F8E020D3F888
:10075000E03003F001030293029B134F22464FF453
:100760000051384601F0C0FE104D01220F212846ED
:1007700001F0BAFE4FF4005303930126049605944A
:10078000069403A9384601F0B9FD0F23039304969C
:1007900005940223069303A9284601F0AFFD09B092
:1007A000F0BD00BF00440258000802580000025883
:1007B00008B501202DF07EF8FBE7000008B53220D7
:1007C0002DF078F84FF40051034801F093FE3220E9
:1007D0002DF070F8F3E700BF0008025808B50BF0E1
:1007E000F5FB05202DF066F8F9E708B505F0FEFCED
:1007F00000202EF07BFA2EF04FF801202DF05AF851
:10080000FBE7000008B50E4A00210E482CF0F4FF6B
:100810000D4B18600D4A00210D482CF0EDFF0D4BDB
:1008200018600D4A00210D482CF0E6FF0C4B1860B3
:100830000C4A00210C482CF0DFFF0C4B186008BD5F
:100840000CF50208B1070008ACA60120A0F40208CC
:10085000BD070008A8A60120E8F40208DD0700088B
:10086000B0A60120C4F40208EB070008B4A60120DA
:10087000FEE7FEE7FEE7FEE7FEE7704708B5024841
:1008800001F000FF08BD00BFB8A6012000B583B08D
:100890000A4BD3F8F42042F00202C3F8F420D3F854
:1008A000F43003F002030193019B00220F216FF04B
:1008B000010000F05FF803B05DF804FB004402584B
:1008C0000F2801D90120704710B58AB004460022D4
:1008D0000146192000F04EF8192000F07DF8174B62
:1008E0001C60174BD3F8F02042F00102C3F8F0204F
:1008F000D3F8F03003F001030093009B01A902A894
:1009000000F046FE00F032FE0E4BA3FB00239B0CD2
:10091000013B0D480D4A026040F2E732C26043607D
:1009200000230361836001F0FBFF10B101200AB0D6
:1009300010BD054801F05AFEF9E700BF0400002091
:100940000044025883DE1B43B8A60120000001408A
:100950000649CB6823F4E0631B041B0C000200F47F
:10096000E0600343024A1A43CA60704700ED00E0AA
:100970000000FA0530B4154BDB68C3F30223C3F162
:100980000704042C28BF04241D1D062D14D9033B85
:100990004FF0FF3505FA04F421EA0401994005FA05
:1009A00003F322EA03031943002807DB0901C9B254
:1009B000074B195430BC70470023E9E700F00F00E3
:1009C0000901C9B2034B1954F4E700BF00ED00E080
:1009D00000E400E014ED00E0002807DB00F01F0257
:1009E000400901239340024A42F82030704700BF7B
:1009F00000E100E0002800F0438338B504460368B6
:100A000013F0010F25D0A84A136903F03803926A46
:100A1000102B15D0182B0FD06368B3F5803F3FD053
:100A2000002B53D1A04B1A6822F480321A601A6846
:100A300022F480221A6038E002F00302022AEBD18D
:100A4000994B1B6813F4003F03D06368002B00F040
:100A50001983236813F0020F00F0A180924A1369F2
:100A6000926A13F038035AD0182B55D0E368002B44
:100A700000F0DE808C490A6822F0190213430B60F3
:100A800001F0A6FD0546884B1B6813F0040F40F0EB
:100A9000AD8001F09DFD401B0228F4D90320F6E251
:100AA000814A136843F48033136063682BB301F009
:100AB0008FFD05467C4B1B6813F4003FC9D101F044
:100AC00087FD401B6428F5D90320E0E2B3F5A02F91
:100AD00009D0754B1A6822F480321A601A6822F421
:100AE00080221A60E1E7704B1A6842F480221A6093
:100AF0001A6842F480321A60D7E701F069FD0546B2
:100B0000694B1B6813F4003FA3D001F061FD401B4B
:100B10006428F5D90320BAE212F0030FA6D1624B84
:100B20001B6813F0040F03D0E368002B00F0AC82C5
:100B30005D4A136823F01903E1680B43136001F069
:100B400047FD0546584B1B6813F0040F06D101F012
:100B50003FFD401B0228F5D9032098E201F03EFD3D
:100B600041F20303984212D82269402A07D04E4925
:100B70004B6823F47C3343EA02334B600FE04A4A6C
:100B8000536823F47C3343F40033536007E0464A50
:100B9000536823F0FE43216943EA016353602368ED
:100BA00013F0100F00F08A803F4A136903F03803F6
:100BB000926A082B54D0182B4ED0E369002B00F01A
:100BC000BA80394A136843F08003136001F000FDD6
:100BD0000546354B1B6813F4807F40F08A8001F096
:100BE000F7FC401B0228F4D9032050E201F0F6FC88
:100BF00041F20303984212D82269402A07D02A49B9
:100C00004B6823F47C3343EA02334B60C7E7264A40
:100C1000536823F47C3343F400335360BFE7224A24
:100C2000536823F0FE43216943EA01635360B6E74A
:100C30001D4A136823F00103136001F0C9FC054647
:100C4000194B1B6813F0040FA9D001F0C1FC401B25
:100C50000228F5D903201AE202F00302012AACD1DE
:100C6000114B1B6813F4807F04D0E369802B01D003
:100C700001200CE201F0B2FC41F20303984215D8C6
:100C8000226A202A07D008494B6823F0F84343EA38
:100C900082634B6012E0044A536823F0F84343F048
:100CA000804353600AE000BF004402589A4AD36868
:100CB00023F07C53216A43EA0163D360236813F075
:100CC000080F60D06369002B49D0934A536F43F0FB
:100CD0000103536701F07CFC05468F4B5B6F13F0FB
:100CE000020F50D101F074FC401B0228F5D90320FB
:100CF000CDE101F073FC41F20303984212D8226A5D
:100D0000202A07D084494B6823F0F84343EA8263E2
:100D10004B60D3E7804A536823F0F84343F08043A5
:100D20005360CBE77C4AD36823F07C53216A43EAC3
:100D30000163D360C2E7784A136823F0800313602D
:100D400001F046FC0546744B1B6813F4807FB5D058
:100D500001F03EFC401B0228F5D9032097E16E4AC2
:100D6000536F23F00103536701F032FC05466A4BD1
:100D70005B6F13F0020F06D001F02AFC401B022823
:100D8000F5D9032083E1236813F0200F29D0A3694C
:100D90009BB1614A136843F48053136001F018FC5F
:100DA00005465D4B1B6813F4005F1AD101F010FC7F
:100DB000401B0228F5D9032069E1574A136823F440
:100DC0008053136001F004FC0546534B1B6813F479
:100DD000005F06D001F0FCFB401B0228F5D9032080
:100DE00055E1236813F0040F21D1636A002B00F052
:100DF0004D81494A126902F03802182A00F0EE804B
:100E0000022B75D0444A136823F08073136001F0FD
:100E1000DFFB0446404B1B6813F0007F00F0DC80D2
:100E200001F0D6FB001B0228F4D903202FE13B4A36
:100E3000136843F48073136001F0CAFB0546374B17
:100E40001B6813F4807F06D101F0C2FB401B6428AD
:100E5000F5D903201BE1A368012B0AD00BBB2E4B55
:100E60001A6F22F001021A671A6F22F004021A6741
:100E700004E0294A136F43F001031367A36833B3F7
:100E800001F0A6FB0546244B1B6F13F0020FACD1FB
:100E900001F09EFB401B41F288339842F3D90320B6
:100EA000F5E0052B09D01C4B1A6F22F001021A67DE
:100EB0001A6F22F004021A67E0E7174B1A6F42F02C
:100EC00004021A671A6F42F001021A67D6E701F0AE
:100ED0007FFB0546104B1B6F13F0020F85D001F00E
:100EE00077FB401B41F288339842F3D90320CEE0D0
:100EF000094A136823F08073136001F069FB05460B
:100F0000054B1B6813F0007F0AD001F061FB401B0A
:100F10000228F5D90320BAE00044025800480258DC
:100F20005E4B996A5E4A0A40A16AE06A41EA001192
:100F30000A439A62226B013AC2F30802616B0139DB
:100F4000490289B20A43A16B0139090401F4FE0187
:100F50000A43E16B0139090601F0FE410A431A63B5
:100F6000DA6A22F00102DA62596B4E4A0A40A16C39
:100F700042EAC1025A63DA6A22F00C02216C0A4387
:100F8000DA62DA6A22F00202616C0A43DA62DA6A31
:100F900042F48032DA62DA6A42F40032DA62DA6A01
:100FA00042F48022DA62DA6A42F00102DA621A68F6
:100FB00042F080721A6001F00BFB0446374B1B684D
:100FC00013F0007F06D101F003FB001B0228F5D9C6
:100FD00003205CE000205AE0002058E02F4A916A8C
:100FE000106B012B54D001F00303A26A934201D08D
:100FF00001204CE0C1F30511E36A994201D00120C0
:1010000045E0C0F30802236B013B9A4201D0012066
:101010003DE0C0F34622636B013B9A4201D00120C0
:1010200035E0C0F30642A36B013B9A4232D1C0F3D4
:101030000660E36B013B984201D0012027E0174B8B
:101040005B6BC3F3CC03A26C9A4225D0134AD36ADC
:1010500023F00103D36201F0BBFA054601F0B8FAB0
:10106000A842FBD00D4A516B0E4B0B40A16C43EADA
:10107000C1035363D36A43F00103D362002006E047
:1010800001207047012002E0012000E0002038BD6F
:101090000120FCE70120FAE70020F8E700440258AD
:1010A0000CFCFFFF0700FFFF724B1B6903F03803C6
:1010B000102B00F0DB80182B10D00BB16E4870475E
:1010C0006C4B1B6813F0200F00F0D280694B18683E
:1010D000C0F3C100694B23FA00F07047654A916A7A
:1010E00001F00301906AC0F30510D36A03F0010315
:1010F000526BC2F3CC0203FB02F307EE903AF8EE18
:10110000677A002800F0B580012966D0F9B102297C
:1011100000F08F8007EE100AF8EE476A9FED586ADC
:1011200086EE267A534B1B6BC3F3080306EE903A08
:10113000F8EE666A9FED536A67EE867A76EEA77AD6
:10114000F7EE006A77EEA67A27EE277A61E0494B40
:101150001B6813F0200F23D046490A68C2F3C1026E
:10116000464BD34007EE103AF8EE476A07EE100AF6
:10117000B8EE476A86EE867A0B6BC3F3080306EE79
:10118000903AF8EE666A9FED3F6A67EE867A76EEF1
:10119000A77AF7EE006A77EEA67A27EE277A38E08C
:1011A00007EE100AF8EE476A9FED376A86EE267A58
:1011B000304B1B6BC3F3080306EE903AF8EE666AF9
:1011C0009FED306A67EE867A76EEA77AF7EE006AD0
:1011D00077EEA67A27EE277A1BE007EE100AF8EEE4
:1011E000476A9FED276A86EE267A224B1B6BC3F374
:1011F000080306EE903AF8EE666A9FED226A67EE03
:10120000867A76EEA77AF7EE006A77EEA67A27EE70
:10121000277A184B1B6BC3F34623013307EE903A32
:10122000F8EE677AC7EE276AFCEEE67A17EE900AC8
:10123000704707EE100AF8EE476A9FED146A86EED3
:10124000267A0C4B1B6BC3F3080306EE903AF8EEBC
:10125000666A9FED0C6A67EE867A76EEA77AF7EEFD
:10126000006A77EEA67A27EE277AD2E70848704719
:10127000024870470044025800093D000090D00326
:101280000024744A000000390024744C0024F44AFD
:1012900000127A00002800F0368103469C4A12684A
:1012A00002F00F028A420CD29948026822F00F0223
:1012B0000A430260026802F00F028A4201D0012054
:1012C000704770B51A6812F0040F0CD01869914A73
:1012D000926902F07002904205D98E4CA26922F008
:1012E00070021043A0611A6812F0080F0CD0586900
:1012F000884AD26902F07002904205D9854CE269B1
:1013000022F070021043E0611A6812F0100F0CD046
:101310009869804AD26902F4E062904205D97D4C16
:10132000E26922F4E0621043E0611A6812F0200FD3
:101330000CD0D869774A126A02F07002904205D93F
:10134000744C226A22F07002104320621A6812F074
:10135000020F0CD0D8686F4A926902F00F029042D7
:1013600005D96C4CA26922F00F021043A0611C4603
:101370000D461B6813F0010F41D0664A936923F4B0
:101380007063A1680B4393616368022B0AD0032B3F
:1013900027D0012B2CD05F4A126812F0040F06D11F
:1013A0000120AFE0126812F4003F00F0AE8059490E
:1013B0000A6922F0070213430B6101F009F906469E
:1013C000544B1B6903F038036268B3EBC20F16D0AD
:1013D00001F0FEF8801B41F288339842F0D90320D7
:1013E00090E04C4A126812F0007FE0D1012089E0C1
:1013F000484A126812F4807FD9D1012082E0236824
:1014000013F0020F0CD0E268424B9B6903F00F030C
:101410009A4205D23F498B6923F00F031A438A6130
:101420003B4B1B6803F00F03AB420CD9384A1368DF
:1014300023F00F032B431360136803F00F03AB4239
:1014400001D001205EE0236813F0040F0CD0226964
:10145000304B9B6903F070039A4205D22D498B698A
:1014600023F070031A438A61236813F0080F0CD02D
:101470006269284BDB6903F070039A4205D2254963
:10148000CB6923F070031A43CA61236813F0100F6D
:101490000CD0A2691F4BDB6903F4E0639A4205D2CA
:1014A0001C49CB6923F4E0631A43CA61236813F033
:1014B000200F0CD0E269174B1B6A03F070039A42AD
:1014C00005D214490B6A23F070031A430A62FFF72E
:1014D000EBFD10498B69C3F303230F4AD35C03F080
:1014E0001F03D8408B6903F00F03D35C03F01F0385
:1014F00020FA03F3094A1360094B1860094B186876
:10150000FFF7DEF970BD012070470120FAE700BF48
:101510000020005200440258E43C0308A0000020D0
:101520009C0000200400002008B5FFF7BDFD0B4A19
:101530009369C3F303230A49CB5C03F01F0320FA2A
:1015400003F3926902F00F02885C00F01F0023FA97
:1015500000F0044A1060044A136008BD00440258B9
:10156000E43C0308A00000209C00002008B5FFF721
:10157000DBFF054BDB69C3F30223044AD35C03F0B2
:101580001F03D84008BD00BF00440258E43C0308D4
:101590003F230360114B1A6902F0070242609A6907
:1015A00002F4706282609A6902F00F02C2609A6966
:1015B00002F070020261DA6902F070024261DA69D7
:1015C00002F4E06282611B6A03F07003C361044BA2
:1015D0001B6803F00F030B60704700BF0044025804
:1015E00000200052404B9B6A03F00303032B79D089
:1015F00070B50E4604463C4A136823F080631360BE
:1016000000F0E6FF0546384B1B6813F0006F06D06C
:1016100000F0DEFF401B0228F5D9032070BD324BDD
:101620009A6A22F47C32216842EA01329A62626844
:10163000013AC2F30802A1680139490289B20A439A
:10164000E1680139090401F4FE010A432169013905
:10165000090601F0FE410A439A63DA6A22F0C002E9
:1016600061690A43DA62DA6A22F02002A1690A4358
:10167000DA62DA6A22F01002DA62D96B1B4A0A4097
:10168000E16942EAC102DA63DA6A42F01002DA6220
:10169000C6B91A46DB6A43F40023D362124A1368C0
:1016A00043F08063136000F093FF04460E4B1B6809
:1016B00013F0006F14D100F08BFF001B0228F5D946
:1016C0000320ABE7012E05D0074AD36A43F4001389
:1016D000D362E3E7044AD36A43F48013D362DDE7BD
:1016E00000209BE701207047004402580700FFFFDD
:1016F000404B9B6A03F00303032B79D070B50E4671
:1017000004463C4A136823F08053136000F060FFE6
:101710000546384B1B6813F0005F06D000F058FFF9
:10172000401B0228F5D9032070BD324B9A6A22F083
:101730007C72216842EA01529A626268013AC2F3FD
:101740000802A1680139490289B20A43E1680139F6
:10175000090401F4FE010A4321690139090601F077
:10176000FE410A431A64DA6A22F4406261690A435C
:10177000DA62DA6A22F40072A1690A43DA62DA6A8A
:1017800022F48072DA62596C1B4A0A40E16942EA2B
:10179000C1025A64DA6A42F48072DA62C6B91A4641
:1017A000DB6A43F48003D362124A136843F0805328
:1017B000136000F00DFF04460E4B1B6813F0005F32
:1017C00014D100F005FF001B0228F5D90320ABE778
:1017D000012E05D0074AD36A43F08073D362E3E752
:1017E000044AD36A43F40003D362DDE700209BE799
:1017F00001207047004402580700FFFFF8B5044677
:10180000D0E9000100F00062002313432ED0A36E44
:10181000B3F5801F19D007D9B3F5001F1FD0B3F55A
:10182000401F34D1002507E0002B30D1A04AD36AF5
:1018300043F40033D36200259D4A136D23F4401313
:10184000A16E0B431365002612E0022104F108008B
:10185000FFF7C8FE0546002DEED02E4608E0022117
:1018600004F12800FFF744FF0546F4E7002635465B
:10187000D4E9000100F480720023134317D0A36D54
:10188000042B37D8DFE803F006282F0B0B000126C6
:101890003546EDE7864AD36A43F40033D36265BB2D
:1018A000834A136D23F00703A16D0B431365D4E93D
:1018B000000100F400720023134335D0E36D802B48
:1018C0004AD01CD81BB3402B1ED1002104F10800C4
:1018D000FFF788FE05461FE0002104F10800FFF72E
:1018E00081FE0546DBE7002104F12800FFF700FF39
:1018F0000546D4E701263546D9E72E46D7E7C02B63
:101900000AD0B3F5807F07D0012635460CE0684A3F
:10191000D36A43F40033D3622DBB654A136D23F4BD
:10192000E073E16D0B431365D4E9000100F48062BC
:101930000023134330D0D4F8A830B3F5800F43D040
:1019400013D8DBB1B3F5001F15D1002104F1080055
:10195000FFF748FE054616E0002104F12800FFF7D6
:10196000C7FE0546D8E72E46DEE7B3F5C00F0AD01E
:10197000B3F5000F07D0012635460DE04C4AD36A77
:1019800043F40033D36235BB494A936D23F46003BB
:10199000D4F8A8100B439365D4E9000100F4006269
:1019A0000023134330D0D4F8AC30B3F1007F3BD0E8
:1019B00013D8DBB1B3F1807F15D1002104F1080009
:1019C000FFF710FE054616E0002104F12800FFF79E
:1019D0008FFE0546D7E72E46DEE7B3F1407F0AD0FB
:1019E000B3F1806F07D0012635460DE0304AD36A47
:1019F00043F40033D362F5B92D4A936D23F0E063CD
:101A0000D4F8AC100B439365D4E9000100F00072E8
:101A1000002313432BD0E36C102B12D00DD9202BB5
:101A20001DD0302B12D009E0002104F12800FFF76F
:101A30005FFE0546DFE72E46E6E73BB10126354669
:101A400015E01B4AD36A43F40033D36275B9184AD0
:101A5000D36C23F03003E16C0B43D36407E0022125
:101A600004F10800FFF7BEFD0546EFE72E46D4E976
:101A7000000100F480520023134328D0236EB3F5F5
:101A8000005F43D00AD8ABB1B3F5805F0CD1002121
:101A900004F10800FFF7A6FD054610E0B3F5405F2E
:101AA0000DD0B3F5804F0AD0012635460FE000BFB8
:101AB000004402587B4AD36A43F40033D36265BBC7
:101AC000784A136D23F4E043216E0B431365D4E988
:101AD000000100F400520023134334D0636EB3F5C9
:101AE000003F28D01BD843B1B3F5803F20D101215E
:101AF00004F10800FFF776FD05461DBB694A136D2A
:101B000023F4E023616E0B4313651CE0002104F114
:101B10002800FFF7EDFD0546D1E72E46D7E7B3F5E0
:101B2000802FEAD0B3F5A02FE7D0B3F5403FE4D043
:101B30000126354607E0012104F12800FFF7D8FD12
:101B40000546DAE72E46D4E9000100F4804200237E
:101B500013432DD0D4F8B030B3F1005F20D013D8A8
:101B600043B1B3F1805F18D1012104F10800FFF700
:101B700039FD0546DDB94B4A936D23F0E043D4F8B7
:101B8000B0100B43936513E0B3F1804FF2D0B3F183
:101B9000A04FEFD0B3F1405FECD00126354607E00F
:101BA000012104F12800FFF7A3FD0546E2E72E46D8
:101BB000D4E9000100F400420023134320D0236F36
:101BC000B3F1805F06D0B3F1005F11D03BB10126C5
:101BD000354615E0334AD36A43F40033D36275B90E
:101BE000304A136D23F04053216F0B43136507E018
:101BF000012104F10800FFF7F5FC0546EFE72E464A
:101C0000D4E9000100F08072002313431FD0A36CBD
:101C1000032B18D8DFE803F007021007214AD36A24
:101C200043F40033D3628DB91E4AD36C23F003030F
:101C3000A16C0B43D3640AE0022104F10800FFF712
:101C4000D1FC0546EFE70126354600E02E46D4E9F3
:101C5000000100F480020023134325D1D4E90001E0
:101C600000F001020023134300F09C80E36F282B57
:101C700000F29480DFE803F0829292929292929224
:101C80007C929292929292928B9292929292929251
:101C90008292929292929292829292929292929244
:101CA000820000BF004402589D4A136843F48073C9
:101CB000136000F08DFC0746994B1B6813F4807F7E
:101CC00005D100F085FCC01B6428F5D90325002D43
:101CD0004AD1944B1B6FD4F8B420534013F4407F87
:101CE0000CD0904B1A6F22F44072196F41F480317E
:101CF0001967196F21F4803119671A67D4F8B43065
:101D0000B3F5807F15D08DBBD4F8B43003F44072A6
:101D1000B2F5407F1ED0834A136923F47C531361CC
:101D200080490B6FD4F8B420C2F30B0213430B6746
:101D300094E700F04DFC07467A4B1B6F13F0020F3F
:101D4000E1D100F045FCC01B41F288339842F3D941
:101D50000325D8E77348026922F47C52724901EAEC
:101D6000131313430361DBE72E4677E72E4675E72F
:101D7000012104F10800FFF735FC05468DB9694AD9
:101D8000536D23F03803E16F0B4353650AE00121E3
:101D900004F12800FFF7ACFC0546EFE701263546C5
:101DA00000E02E46D4E9000100F0020200231343B4
:101DB00021D0A36F052B1AD8DFE803F0090312091D
:101DC0000909012104F10800FFF70CFC05468DB953
:101DD000544A536D23F00703A16F0B4353650AE088
:101DE000012104F12800FFF783FC0546EFE70126F7
:101DF000354600E02E46D4E9000100F0040200233D
:101E0000134323D0D4F89430052B1BD8DFE803F01C
:101E1000090313090909012104F10800FFF7E2FB96
:101E2000054695B93F4A936D23F00703D4F8941003
:101E30000B4393650AE0012104F12800FFF758FCE9
:101E40000546EEE70126354600E02E46D4E90001BE
:101E500000F02002002313432DD0D4F89030B3F1CA
:101E6000005F20D013D843B1B3F1805F18D10021B7
:101E700004F10800FFF7B6FB0546DDB9294A536DAA
:101E800023F0E043D4F890100B43536513E0B3F113
:101E9000804FF2D0B3F1A04FEFD0B3F1405FECD060
:101EA0000126354607E0022104F12800FFF720FC57
:101EB0000546E2E72E46D4E9000100F04002002387
:101EC000134334D0D4F89C30B3F5006F20D013D82E
:101ED00043B1B3F5806F18D1002104F10800FFF77A
:101EE00081FB054615BB0F4A936D23F4E053D4F8EC
:101EF0009C100B4393651AE0B3F5805FF2D0B3F505
:101F0000A05FEFD0B3F5406FECD0012635460EE070
:101F1000022104F12800FFF7EBFB0546E2E700BFD2
:101F20000048025800440258CFFFFF002E46D4E973
:101F3000000100F08002002313432DD0D4F8A0301C
:101F4000B3F5804F20D013D843B1B3F5005F18D15B
:101F5000002104F10800FFF745FB0546DDB97D4A85
:101F6000936D23F46043D4F8A0100B43936513E002
:101F7000B3F5004FF2D0B3F5204FEFD0B3F5C04F1B
:101F8000ECD00126354607E0022104F12800FFF7D6
:101F9000AFFB0546E2E72E46D4E9000100F0080257
:101FA000002313430CD0D4F88430B3F5805F2ED0D7
:101FB000684A536D23F44053D4F884100B4353659F
:101FC000D4E9000100F01002002313430CD0D4F830
:101FD0009830B3F5807F23D05E4A936D23F440732D
:101FE000D4F898100B439365D4E9000100F4002263
:101FF0000023134335D0D4F8A430B3F5803F28D064
:10200000B3F5003F1BD0A3B10126354629E00221DC
:1020100004F12800FFF76CFB0028C9D00126C7E7B0
:10202000022104F12800FFF763FB0028D4D0012629
:10203000D2E7002104F10800FFF7D4FA05467DB984
:10204000444A936D23F44033D4F8A4100B439365B2
:1020500007E0022104F12800FFF74AFB0546EEE7FE
:102060002E46D4E9000100F480220023134324D03B
:10207000D4F88830B3F5001F17D0B3F5401F0AD04D
:10208000B3F5801F02D00126354616E0314AD36AE7
:1020900043F40033D3627DB92E4A536D23F44013C9
:1020A000D4F888100B43536507E0012104F12800A0
:1020B000FFF71EFB0546EEE72E46D4E9000100F4CB
:1020C00080320023134314D0236D2BB1B3F5803F2E
:1020D0002AD0012635460CE01E4AD36A43F4003369
:1020E000D36245BB1B4AD36C23F48033216D0B4371
:1020F000D364D4E9000100F00052002313431CD143
:10210000D4E9000100F400320023134334D0D4F8A2
:102110008030B3F5807F1FD018D9B3F5007F20D071
:10212000B3F5407F13D11CE0022104F10800FFF752
:1021300059FA0546D5E72E46DBE7022104F12800CF
:10214000FFF7D6FA0028DBD00126D9E74BB10126EC
:1021500012E000BF00440258674AD36A43F40033D8
:10216000D362002D40F08F80634A536D23F4407397
:10217000D4F880100B435365D4E9000100F48012B9
:102180000023134306D05C4A136D23F00043616FB4
:102190000B431365D4E9000100F080520023134380
:1021A00007D0554A136923F48043D4F8B8100B4381
:1021B0001361D4E9000100F400120023134306D098
:1021C0004D4A136D23F08073E16E0B431365D4E920
:1021D000000100F080420023134309D0464B1A69E6
:1021E00022F400421A611A69D4F8BC100A431A6139
:1021F000D4E9000100F000420023134306D03E4A18
:10220000D36C23F04053616D0B43D364D4E90001D8
:1022100000F400020023134307D0374A536D23F420
:102220004003D4F88C100B435365D4E9000100221D
:1022300001F00103134328D1D4E90001002201F089
:10224000020313432AD1D4E90001002201F0040360
:1022500013432CD1D4E90001002201F008031343F9
:102260002ED1D4E90001002201F01003134330D134
:10227000D4E90001002201F02003134332D106B15A
:1022800001263046F8BD2E4676E7002104F108000D
:10229000FFF7A8F90028CFD00646CDE7012104F1C9
:1022A0000800FFF79FF90028CDD00646CBE70221B2
:1022B00004F10800FFF796F90028CBD00646C9E7DD
:1022C000002104F12800FFF713FA0028C9D00646C0
:1022D000C7E7012104F12800FFF70AFA0028C7D058
:1022E0000646C5E7022104F12800FFF701FA00289D
:1022F000C5D00646C3E700BF00440258F0B482B020
:1023000000235FE086685F000325BD4026EA0506DE
:10231000CD68BD4035438560466826EA04064D68B1
:10232000C5F300149C40344344605AE0DD0808358E
:1023300050F8257003F00704A6000F24B44027EAE4
:1023400004070C69B4403C4340F825405DE0092493
:1023500000E00024B4403C4302355F4E46F825407F
:102360004FF0B0442568D44304EA05064F6817F4DB
:10237000801F01D042EA05064FF0B0452E606E681E
:1023800004EA06054F6817F4001F01D042EA06056B
:102390004FF0B0467560514D6D6804EA05064F6810
:1023A00017F4003F01D042EA05064C4D6E602D68DF
:1023B0002C404E6816F4803F01D042EA0504474A9B
:1023C000146001330A6832FA03F400F082800124B9
:1023D0009C402240F5D04D6805F00305013D012DDC
:1023E00090D94C6804F00304032C09D0C5685E0042
:1023F0000324B44025EA04058C68B4402C43C4602F
:102400004C6804F00304022C90D005685E0003249D
:10241000B44025EA04054C6804F00304B4402C439E
:1024200004604C6814F4403FCBD02D4CD4F8F450E9
:1024300045F00205C4F8F450D4F8F44004F0020466
:102440000194019C9D08AE1C234C54F8267003F0A7
:102450000304A6000F24B44027EA0407214CA0423D
:102460003FF477AF04F58064A04222D004F5806485
:10247000A04220D004F58064A0421ED004F5806400
:10248000A0421CD004F58064A0421AD004F58064F8
:10249000A04218D004F58064A04216D004F58064F0
:1024A000A04214D004F58064A0423FF450AF0A2447
:1024B00050E701244EE702244CE703244AE70424B2
:1024C00048E7052446E7062444E7072442E70824B2
:1024D00040E702B0F0BC704700040058800000588C
:1024E000004402580000025812B909048161704783
:1024F00081617047436901EA030221EA030141EA6D
:102500000241816170470000134BDB6813F0040F38
:1025100007D1114BDB6803F0070383421AD0012077
:10252000704710B50C4AD36823F007031843D060F6
:1025300000F04EF80446084B5B6813F4005F07D1C7
:1025400000F046F8001BB0F57A7FF4D9012000E0D6
:10255000002010BD002070470048025810B503202D
:10256000FEF7F6F9FEF7A0FD0F498B69C3F30323CD
:102570000E4AD35C03F01F03D8408B6903F00F03AE
:10258000D35C03F01F0320FA03F3094A1360094BDD
:1025900018600F20FEF794F910B10124204610BDF9
:1025A0000446FEF773F9F9E700440258E43C0308D7
:1025B000A00000209C000020034B1B78034A1168F8
:1025C0000B441360704700BF0000002004A70120E7
:1025D000014B1868704700BF04A70120014B186821
:1025E000000C70470010005C7047000090F83D3010
:1025F000DBB2012B01D001207047022380F83D306F
:102600000268D36843F00103D3600368194AB3F149
:10261000804F18BF93421DD0A2F57C42934219D03F
:1026200002F58062934215D002F58062934211D088
:1026300002F5784293420DD0A2F56C42934209D044
:1026400002F59432934205D01A6842F001021A60F2
:10265000002070479968084A0A40062A18BFB2F558
:10266000803F05D01A6842F001021A6000207047CE
:1026700000207047000001400700010070477047CC
:102680007047704710B5044603681A6912F0020FCC
:1026900011D0DA6812F0020F0DD06FF002021A6149
:1026A0000123037703689B6913F0030F79D0FFF7C9
:1026B000E6FF0023237723681A6912F0040F12D073
:1026C000DA6812F0040F0ED06FF004021A610223D0
:1026D000237723689B6913F4407F68D02046FFF777
:1026E000CEFF0023237723681A6912F0080F12D057
:1026F000DA6812F0080F0ED06FF008021A61042396
:1027000023772368DB6913F0030F57D02046FFF7C8
:10271000B6FF0023237723681A6912F0100F12D036
:10272000DA6812F0100F0ED06FF010021A61082351
:1027300023772368DB6913F4407F46D02046FFF7F8
:102740009EFF0023237723681A6912F0010F03D03C
:10275000DA6812F0010F3FD123681A6912F0800F76
:1027600003D0DA6812F0800F3DD123681A6912F4A1
:10277000807F03D0DA6812F0800F3BD123681A699A
:1027800012F0400F03D0DA6812F0400F39D12368FD
:102790001A6912F0200F03D0DA6812F0200F37D137
:1027A00010BDFFF76BFF2046FFF76AFF81E7204669
:1027B000FFF764FF2046FFF763FF92E72046FFF72D
:1027C0005DFF2046FFF75CFFA3E72046FFF756FFBB
:1027D0002046FFF755FFB4E76FF001021A6120466B
:1027E000FDF710FFB8E76FF080021A61204600F095
:1027F000C7F8BAE76FF480721A61204600F0C1F89A
:10280000BCE76FF040021A612046FFF73AFFBEE7CF
:102810006FF020021A61204600F0B1F8C0E7000016
:1028200070B40368374CA04214BF00240124B0F1F7
:10283000804F14BF224644F00102AAB9324DA8428B
:1028400014BF00250125314EB0420DD065B905F108
:10285000804505F58235A84214BF0025012506F5FF
:102860000066B04200D01DB123F070034D682B43C9
:1028700012BB254A904214BF00220122234DA842D8
:102880001AD0CAB902F1804202F58232904214BFD6
:102890000022012205F50065A8420DD062B91C4A4C
:1028A000904214BF0022012205F59A35A84203D0B8
:1028B00012B9184A904203D123F44073CA681343F3
:1028C00023F080034A69134303608A68C2620A687E
:1028D0008262114B984214BF234644F001035BB956
:1028E0000B4B984214BF002301230C4A904203D0A3
:1028F00013B9084B984201D10B690363012343616B
:1029000070BC704700000140000800400004004017
:1029100000440140004801400004014000400140E3
:1029200058B310B5044690F83D300BB3022384F839
:102930003D30211D2068FFF773FF012384F84830E4
:1029400084F83E3084F83F3084F8403084F84130D9
:1029500084F8423084F8433084F8443084F84530B9
:1029600084F8463084F8473084F83D30002010BDAC
:1029700080F83C30FFF738FED8E7012070477047F9
:1029800070477047F8B5054600200BF08FFB0446F2
:102990000026374605E02646274620460BF086FBF4
:1029A00004465CB1204605F085FD636DAB42F4D171
:1029B00002280ED00428EED02646EEE70FB13846A6
:1029C000F8BD0EB13746FAE700200BF06FFB074663
:1029D000F5E72746F3E72DE9F047037F13F0010FF2
:1029E0006FD191468A460646C5684FF00108002718
:1029F000E5B1012357B32BB129463046C8470546F8
:102A0000874269D0002DF3D0286803F0BFFC10F096
:102A1000800FEDD12C68ECB10121204603F0A9FC18
:102A2000C0B9204602F0C4FD0446F4E7337F13F03A
:102A3000080F01D1002F49D1B8F1000F43D0304623
:102A4000D04705464FF000084346D3E7002D40D05D
:102A50002F46D0E72CB10121204603F08AFC002844
:102A6000C6D1F368AB423AD08BB11C683046FFF751
:102A700089FF02460F21204604F098FC012802D06D
:102A80004FF000081FE0F368186806F06BFBF56074
:102A90002C683046FFF776FF02460E21204604F0F0
:102AA00085FC012802D04FF000080CE0F36818689C
:102AB00006F058FB3369ABB1304698474FF0010838
:102AC00001E04FF000084046BDE8F0874FF00008F5
:102AD000F9E74FF00008F6E74FF00008F3E74FF092
:102AE0000008F0E74FF00108EDE7000008B52021ED
:102AF00001480BF0E3F808BD20A80120014B18683D
:102B0000704700BFD400002010B50446054A0649AE
:102B1000FFF761FF63691BB110B901212046984797
:102B200010BD00BF5DDD000849DD000810B504469A
:102B3000054A0649FFF74FFF63691BB110B9002131
:102B40002046984710BD00BF65DD000853DD000832
:102B500038B50446037FC3F3C00543F00803037789
:102B600013F0040F06D0FFF7E1FF237F65F3C303E3
:102B7000237738BDFFF7C8FFF7E7F8B5054603F040
:102B800007FC00284AD00646C36813B11B68AB4255
:102B900014D0F36813B11B68AB4231D037463046CE
:102BA0000BF0D2F80446002C38D02368AB422AD070
:102BB000214638460BF0D2F80446F4E7037F13F0C1
:102BC000010F03D0037F6FF30003037730460BF050
:102BD000BBF8F368834203D03046FFF7B9FFD8E76C
:102BE00030460BF0B6F8F3688342F5D11C683046E6
:102BF000FFF7C8FE02460F21204604F0D7FBC8E7C6
:102C00000023F360CAE7214630460BF0AEF82046B9
:102C10000AF0FCFDAB680BB100229A60F8BD0028F9
:102C200039D070B505460C460846FFF7A6FF2E467C
:102C300028460BF089F838B10368A34226D0014634
:102C400030460BF08BF8F6E7204603F0A1FB30B1DD
:102C5000A3689B681BB1DB681B68A34209D0A3680B
:102C600053B1A3689D6028460BF04FF8064638B96B
:102C7000FEE7FFF76DFFF2E7204603F0ADFDF0E75A
:102C8000046028460BF060F8864200D070BD2846EC
:102C9000FFF75EFFFAE7704718B1C3681BB1186809
:102CA00070470020704700207047F8B170B50446A7
:102CB000037FC3F340038B4213D0037F61F34103CF
:102CC0000377FFF7E9FF064658B1E3681D68204621
:102CD000FFF758FE02460E21284604F067FB012844
:102CE00000D070BD304606F03DFAFAE7704718B1E3
:102CF000007FC0F3400070470020704770B582B07D
:102D00000368DB68DB68B3FBF1F116468A4200DB3F
:102D10000E46164B1B681B689B6913B30023ADF866
:102D20000030ADF80430ADF8023035B26C1E24B27C
:102D3000ADF806400D4B1B681868836969469847D3
:102D4000BDF9062093B2BDF802105B1A9BB20133A5
:102D50001BB2B34202DD2546002CE7DC002D03DD6B
:102D6000561C304602B070BD0020FBE7D8000020A2
:102D700070B48B880C881B1B9BB201331CB2CB88B0
:102D80004D885B1B9BB201331BB203FB04F3013B79
:102D9000002409E032F8135032F8146022F813606E
:102DA00022F81450013B0134A342F3D8B1F9064094
:102DB00042884B88D21A92B2013ACA8043881B1BC0
:102DC0009BB2013B4B80B1F9044002880B88D21AB8
:102DD00092B2013A8A8003881B1B9BB2013B0B8095
:102DE00070BC70472DE9F041DDF818C002FB01F816
:102DF00008F1FF3801F1FF3E0EFB02FE00270FE055
:102E0000AD1A013424B233468C4207DA9E1C1B886B
:102E10002CF815300028F3D01544F2E701373FB203
:102E2000974206DA07EB0E0508B1A8EB050500246A
:102E3000EAE7BDE8F0812DE9F041002646E001FB1C
:102E4000067C01FB074701FB043401FB036332F8F6
:102E50001CE032F8178022F81C8032F814C022F8E7
:102E600017C032F8137022F8147022F813E00135FD
:102E70002DB22F464B1C25D4B7EB630F24DA8BB24F
:102E80009C1B013C24B2ADB25B1B013B1BB2002872
:102E9000D5D001FB067E01FB036C01FB043301FB73
:102EA000074432F81E7032F81C8022F81E8032F877
:102EB00013E022F81CE032F814C022F813C022F804
:102EC0001470D4E70133D7E7013636B20B46002938
:102ED00004DBB6EB630F03DA0025CAE74B1CF8E707
:102EE000BDE8F08170B582B00B8804892344ADF849
:102EF00000304E8843891E44ADF802608E88344409
:102F0000ADF80440C9880B44ADF806304369694602
:102F1000984702B070BD38B1002242600261C260C1
:102F20008260026042617047FEE718B100220260D1
:102F300042607047FEE770B582B006460D4600223B
:102F4000143107F082FA88B30121284603F011FA00
:102F500070BB284603F0EEFF60BB00238DF8003005
:102F600001966A461221284604F020FA9DF80030A6
:102F7000022B21D0284602F062FB441E0023002CC5
:102F80000ADBAB681B6853F824103046FFF7D3FF09
:102F9000034608B9013CF2E713B1184602B070BD10
:102FA0009DF80020002AF8D12B46F6E70023F4E72D
:102FB0000023F2E70023F0E70023EEE72DE9F041DC
:102FC00088B007460C4616469846084603F07BFF35
:102FD000054606A9204605F090FC2A46294606A883
:102FE00007F0E1F8022E05D0012E32D0002008B003
:102FF000BDE8F08102AD08AB13E9030085E80300EA
:1030000000231A462946204605F08AFF2A46B96859
:10301000684607F0E6F808B90020E8E704AD6B461B
:1030200093E8030085E80300012300222946204697
:1030300005F076FF06AA2946284607F0D2F80028B0
:10304000EAD004AB03CBC8F80000C8F80410012094
:10305000CDE706AAB96804A807F0C3F80028C6D0CF
:1030600004AB03CBC8F80000C8F804100120BEE789
:10307000F0B583B00D46144613F0010F0DD10022B8
:10308000B4F90E10B4F90630994200DDE38121460F
:10309000284621F0A5FD03B0F0BD064602F1080761
:1030A000002200F11401384607F0CFF938B96389DE
:1030B000228A13449BB2013BE3810122E0E7002313
:1030C0008DF8003001976A461221304604F06EF9FF
:1030D0009DF80030002BEAD10022D1E72DE9F04322
:1030E00083B000254EE001342E4B1B68B3F850210D
:1030F000A24246D91A1992F83021002AF3D1AC42E3
:10310000F1D0A81DA11D03EBC10103EBC00007F026
:103110007AF90028E7D0DFF88C80D8F80010AF1DCE
:10312000FF00A61DF6008A193944684607F085F8A5
:10313000684607F02AF88146D8F80000384407F0BE
:1031400024F80746D8F80000304407F01EF8384449
:103150008145C8D2D8F80020BDF90010AB1D22F877
:103160003310BDF9021002EBC3035980BDF90410FE
:103170009980BDF90610D9802244012382F83031AC
:10318000B1E70135074B1B68B3F85021AA4206D9B5
:103190002B4493F83031002BF3D10024A4E703B083
:1031A000BDE8F083D80000202DE9F04F8BB08246B7
:1031B0000391884B18680468237C13F0020F02D037
:1031C00013F0040F07D103F03003202B06D0302B6F
:1031D00018BF102B0ED00BB0BDE8F08F039D2A4610
:1031E00051462046FFF7C4FD2A4651462046FFF7C8
:1031F00079FEF0E70AF056FF0546BAF80410BAF96E
:10320000002093B2C91A89B2013189B2089108B27B
:103210000646BAF80690BAF90210099189B20791E8
:10322000A9EB01091FFA89F909F101090FFA89F9D6
:103230004FF4A051B1FBF0F14945A8BF49460691B2
:10324000217C01F0300110290BD0AAF80220089A45
:1032500013449BB2013BAAF8063000270497B346FB
:1032600064E06288D31A9BB2013B9BB2AAF8063095
:10327000089A9B1A9BB20133AAF80230EDE7207C32
:1032800000F03000039A5946302814BF0020012076
:10329000FFF7D1FD237C03F03003102B0ED02388E1
:1032A000079A9B1A013B9BB2AAF80430089A9B1A12
:1032B0009BB20133AAF800305E4672E0BDF82430BC
:1032C000AAF80030079B089A13449BB2013BAAF866
:1032D00004305E4665E04FF420500AF0EBFA0490AB
:1032E0003DE0079B3B449BB2AAF8003043449BB2AD
:1032F000013BAAF8043054E000236B61049A5AB1F0
:1033000051462046FFF7EEFD2B693BB1A36A002B27
:10331000FAD020469847F7E7039AF1E708FB0BF845
:10332000039B03EB4803039337443FB24F4548DA0E
:103330000597A9EB0708069B9845A8BF98460FFA82
:1033400088F601232B61D945B4BF00230123002F48
:1033500018BF0023002B92D1049B002BBBD0207CF4
:1033600000F03000049B0093039B324659463028FE
:1033700014BF00200120FFF735FD237C03F030034C
:10338000102BAED02388079A9B1A9BB2DB1B013B04
:103390009BB2AAF80430A3EB08039BB20133AAF84E
:1033A0000030B046059B33449945A5DCAB6913F06A
:1033B000010FA1D0AB6913F0020F9DD001236B6107
:1033C0009CE7049B002B3FF406AF18460AF0D6FAA0
:1033D00001E700BFD8000020F8B506462E4B18685C
:1033E0000AF060FE04463368DD6B6B6B0BB1284658
:1033F0009847E068284B1B681A68B2F90010B2F9C8
:10340000023003FB01F322686AB162685AB1984244
:1034100009D023693BB1204B1B681868836A002BD5
:10342000F7D09847F5E7012323611B4B1B681B6806
:10343000DB689A6912F0010F06D09B6913F0020F46
:1034400002D00123636101E0002363616769306892
:10345000436953B1037C13F0300F02D013F0040F13
:1034600012D12A686968FFF73DFD23685BB1626885
:103470004AB13168097C11F0010F00D01FB1A16879
:103480008B4206D0A360F8BD29686868FFF78CFE00
:10349000EBE7A260F7E700BFD800002008B50348BB
:1034A000FFF739FD0248FFF740FD08BDE4000020AA
:1034B000DC0000202DE9F04387B006460D46D0F829
:1034C000088002A9284605F018FA284603F0FBFCFC
:1034D0000146024602A806F066FE02AA414604A87A
:1034E00006F07FFEB0B101239946EBB94FF40021FD
:1034F000284602F03EFF48B36B46D8F80000D8F8E3
:10350000041003C3C6F808D0284602F098F807460E
:1035100000242BE04FF40021284602F02AFF08B9CE
:103520000023E1E70123DFE704ABB3603246142157
:10353000284603F03BFF32461521284603F036FFAC
:1035400032461621284603F031FFCFE705F1140279
:103550004146684606F045FE50B1D3E7AB681B68AC
:1035600053F82410304600F01DF80134BC42F5D366
:10357000B9F1000F04D1C6F8088007B0BDE8F083A8
:1035800004ABB36032461721284603F00FFF3246E2
:103590001821284603F00AFF32461921284603F075
:1035A00005FFE8E72DE9F0438BB005460C46012105
:1035B000204602F0DEFE10B10BB0BDE8F0832046DD
:1035C00003F0B8FC0646002800F08C806022002141
:1035D000204604F0D1FAC7B2012FEDD902AB324632
:1035E00021462846FFF7EAFC0128E5D1002204F134
:1035F000140102A806F029FF002878D14FF0010835
:10360000012E00F08780424602A9284621F0B8FA30
:1036100006460028D0D06E220021204604F0ACFAE5
:103620000FFA80F9ADF804906F220021204604F0D3
:10363000A3FA00B2ADF8060009F4C043B3F5005F89
:103640006BD000F4C043B3F5005F00F0818004A8A4
:1036500021F002FC8DF81B706D220021204604F041
:103660008BFA00B2ADF81000B0F5616F40F38C80BA
:10367000A0F56160ADF810006C220021204604F036
:103680007BFAADF8120067220021204604F074FA9C
:103690009DF81C3060F303038DF81C305B4B1B68F6
:1036A0001B681B7CC3F3C0039DF8242063F3000256
:1036B0008DF8242018F0020700F0948006F108032A
:1036C00096E8030083E803007389728A13449BB26F
:1036D000013B1BB2F381B6F90620934240F382808E
:1036E000F2817FE021462846FFF7E4FE64E70023ED
:1036F0008DF8103002AB059304AA1221204603F086
:1037000055FE9DF8103013B14FF0010878E74FF0E7
:10371000000875E748F0020875E729F4C049B9F5D3
:10372000FA6F8EDCB9F57A7F01DDC9F57A79238BE2
:10373000A28A9B1A9BB201331BB209FB03F3344AE2
:1037400082FB0312DB17C3EB6213ADF8043078E79A
:1037500020F4C040B0F5FA6F3FF779AFB0F57A7F4B
:1037600001DDC0F57A70638BE28A9B1A9BB201334C
:103770001BB200FB03F3264A82FB0312DB17C3EBE9
:103780006213ADF8063062E70028BFF675AF00F5AA
:103790006160ADF810006FE721462846FFF78AFE0A
:1037A000A38ABDF8042013449BB26A6811885B1A8F
:1037B000ADF81430E38ABDF806100B449BB2528872
:1037C0009B1AADF8163004AA3146284621F00DFAAE
:1037D000BFB1F38901339BB27381728A13449BB2E8
:1037E000013BF381B6F90A20BDF90E309A4208DC9C
:1037F000002FD1D04346324629462046FFF738FCF9
:10380000CAE73146284621F0F5F9D5E6D800002070
:103810001F85EB512DE9F8438146884659B1B8F12F
:10382000000F3AD041464846FFF7BCFE404601F043
:10383000BFFE054629E01A4B186803F081FC80465C
:10384000EDE74846FFF7AEFE0134BC4209D2AB6853
:103850001B6853F82410002EF3D18845F4D10126BB
:10386000F2E74A461721284603F0A0FD4A461821F0
:10387000284603F09BFD4A461921284603F096FD91
:10388000284601F095FEA846054635B1284601F0C8
:10389000D6FE074600242646D7E7BDE8F88300BFDA
:1038A000D80000202DE9F04194B004466E4B186812
:1038B0000AF0F8FB0546E3680BB120469847E86834
:1038C000694B1B681A68B2F90010B2F9023003FBA9
:1038D00001F32A6812B16968002935D01AB16A6803
:1038E0000AB1984230D065685F4E306803F028FC1A
:1038F00001462846FFF71FFB054633685969002932
:103900002DD06068FFF717FB0646B6FA86F35B0911
:10391000002D18BF002323BB534B1B6893F82820AE
:1039200012F0010F79D0002D75D029462046FFF7FF
:1039300071FF4D4B1B68596900297AD006B1314699
:103940002046FFF767FF74E02B69002BCBD0464B76
:103950001B681868836A002BF6D09847F4E70026A6
:10396000D3E7DFF80481D8F800000AF047FB87B2FC
:10397000013FBFB2D8F800000AF058FB80B201380E
:1039800000B200903BB20022114604A806F0EAFB08
:10399000236BABB106A821F061F9D8F80030DA6AE0
:1039A0000A9293F829208DF832205B8DADF81C30F7
:1039B0008DF81B20236B04AA06A920469847ABE785
:1039C000294B1B68D86AA0B103A922F067FA012825
:1039D000A2D106A821F040FA234B1B6893F82920B6
:1039E0008DF82320DB6A04AA06A9204621F0BCFB3F
:1039F00092E706A821F032F91B4B1B685A8DADF8EF
:103A00001C2093F829308DF81B30626806A92046E7
:103A100021F04CF980E71D6987E75B6923B1EEB1BE
:103A200031462046FFF7F6FED5B129462046FFF77E
:103A3000F1FE0D4D286803F09BFB01462046FFF781
:103A4000E9FE286803F0A0FB01462046FFF7E2FEEE
:103A50002868FFF7C1FC14B0BDE8F0811E46DFE71F
:103A6000014B1B681D69E0E7D80000202DE9F047F5
:103A700086B00746614B18680368DD6BDB689B689E
:103A80002B6003681B7C13F0030F32D00AF0B6FAE8
:103A900084B2013CA4B2594E30680AF0C7FA80B231
:103AA00001380DF1080800B2009023B2002211463F
:103AB000404606F057FBC5F8048033681B681A7C43
:103AC00012F0020F0AD0DA68137E43F00203137675
:103AD00002ABAB602846FFF7E5FE6DE0DA6891695E
:103AE000137E61F341031376AF602846FFF7DAFED9
:103AF00062E0BC883B88E41AA4B2013424B2B7F96E
:103B000006601FFA86F87B88A8EB03081FFA88F87E
:103B100008F101080FFA88F80AF088FAB0420EDDC1
:103B2000B7F9066042462146344B1868FFF7E6F8BD
:103B300081468046B7F902304FF0000A0FE02F4B64
:103B400018680AF073FA86B2013E36B2EAE7BDF9A8
:103B500016A0564527D02846FFF7A4FE23B203EB54
:103B60000802013AB24225DCB7F90020ADF8102076
:103B7000B7F90420ADF81420ADF812304B449CB2D4
:103B8000631EADF8163004AB6B60AB601B4B1B685B
:103B90001A68D26892682A60BDF91620B242D6DD52
:103BA000ADF81660D3E71B68DA68137E43F00203B2
:103BB0001376D0E7B24502D106B0BDE8F087B7F979
:103BC0000020ADF81020B7F90420ADF81420ADF8AE
:103BD0001230ADF8166004AB6B60AB60074B1B682E
:103BE0001A68D26892682A601B68DA68137E43F00C
:103BF000020313762846FFF755FEDDE7D8000020C4
:103C000070B52E4B00221A602D4B1A68B2F8504145
:103C1000002C52D0013C002C05DB131993F83031F5
:103C200013B1013CF7E700241068436B03B19847D8
:103C3000234B1B681A68D1680A7E6FF300020A766C
:103C40001A68D1680A7E6FF341020A7693F8282039
:103C500042F0040283F82820002514E00368DA68A3
:103C6000137E6FF341031376AE1DF6003044FFF769
:103C7000FDFE134B1868304406F087FA0F4A1368AC
:103C80001844106001350E4B1868B0F85031AB4243
:103C90000DDD431993F83031002BF3D1A542DDD16E
:103CA0000368DA68137E43F001031376D6E790F8D1
:103CB00028306FF3820380F8283070BDFC000020AC
:103CC000D800002030B585B00D460446002839D014
:103CD000002C3ED0204603F06CFA002839D094F82E
:103CE000283013F0040F34D185B30023ADF8083029
:103CF000ADF80A3020460AF081F980B20138ADF8FB
:103D00000C0020460AF092F980B20138ADF80E009E
:103D100002AA2946684606F064FAD0B12068037CFE
:103D200013F0020F17D004F1300304AA12E90300C4
:103D300083E803000123A4F85031606848B108F01B
:103D4000E6F906E00AF054F90446C1E70023A4F8B6
:103D5000503105B030BD83690BB1694698470025E5
:103D6000B4F85031AB420BD9A91D002204EBC101BC
:103D7000684606F06AFB0028EBD10135ADB2EFE7EB
:103D80001F2B1AD8BDF90020063324F83320BDF9C3
:103D9000022004EBC3035A80BDF904209A80BDF9C8
:103DA0000620DA80B4F850310133A4F8503160684D
:103DB0000028CED008F0ABF9CBE70023A4F85031AF
:103DC000BDF908302386BDF90A306386BDF90C3091
:103DD000A386BDF90E30E386E4E70000014B1868C6
:103DE000704700BFD800002030B58BB004460AF001
:103DF0006BF9054600230993002C6BD0E268A04BB9
:103E00001A609F4C2368186905F0B2FE2368586950
:103E100008B105F0ADFE9A4C2368D86905F0A8FEFC
:103E20002368186A05F0A4FE23681A69002A56D090
:103E3000FFF754F9FFF7E4FE914B1868B0F85031E2
:103E4000002B50D109F0B2FD13F045FB20F0BCF976
:103E50008C4B5C69002C64D08A4B18680AF042F9DC
:103E6000B0F5967F80F09A80874B1A6841F28833CC
:103E70009A4207D90999834B5A680A445A609A684A
:103E800001329A60814B5C68002C00F0C1807F4B4E
:103E900018680AF027F9B0F5967F22D90AF014F9CC
:103EA0007A4B186002A809F067FE029A049BD21AA6
:103EB000C2F309037649A1FB03139DF820109DF876
:103EC0002100019000919B09920A7249204612F04C
:103ED000E9F906E00AF08CF8694B186091E7A3F85D
:103EE00050210BB030BD4FF48071303009F076FEB8
:103EF000634C2068202100F5987009F06FFE23685C
:103F00000022A3F8502128460AF0ECF80990236813
:103F10001868436A002B95D009995B4A1268984744
:103F200090E70AF065F803F02FF911F0D5FC04468C
:103F300000227F2101F0F9FA00224FF00001204613
:103F400001F0E2FA00224FF0FF31204601F0FBFAC7
:103F500000220321204601F0BBFA00220321204663
:103F600001F0BDFA00220321204601F0BFFA002231
:103F70000321204601F0C1FA00220321204601F06E
:103F8000F3FA4549204612F053F900231A46062158
:103F9000204604F0A5FC3B4B5C615DE70AF094F819
:103FA000384B1860364B1B685B686BB31B684FF46B
:103FB0007A75B5FBF3F5334B5B6813B9314B0122CE
:103FC0005A60304B9A680AB34FF47A7303FB02F3DA
:103FD0002C4A5268B3FBF2F32A4A002151609160E7
:103FE0009D4200D31D46274B1A692A441A61DA689C
:103FF0000132DA6008F0AEF8C0F164032A462749BE
:10400000204612F04FF93DE73225D4E72B46E3E78F
:1040100009F0EEFF03F0B8F811F05EFC0446002250
:104020007F2101F082FA00224FF00001204601F0CA
:104030006BFA00224FF0FF31204601F084FA002293
:104040000321204601F044FA00220321204601F01A
:1040500046FA00220321204601F048FA00220321FB
:10406000204601F04AFA0C49204612F0E1F80023FC
:104070001A460421204604F033FC044B5C6006E73A
:10408000D8000020E4000020FC000020DC0000201C
:10409000A1A0A0A078F5020860F5020864F5020866
:1040A00008B500220A21006803F080F908BD38B580
:1040B00004460D4602F090FBA268137E03F0030352
:1040C000AB4206D0137E65F301031376204605F05C
:1040D00049F838BD38B505460C4602F07DFBAA68A4
:1040E000537E03F00F03A34203D0537E64F3030314
:1040F000537638BD38B505460C4602F06DFBAB680B
:104100001A7E64F383021A7638BD38B505460C462C
:1041100002F062FBAB681A7E64F305121A7638BDB2
:1041200083681BB1187E00F00300704703207047BE
:1041300083681BB1587E00F00F0070470F20704756
:1041400083681BB1187EC0F3810070470020704760
:1041500083681BB1187EC0F30110704700207047C0
:1041600083681BB1188A404200B270470020704734
:1041700083681BB1588A404200B2704700207047E4
:1041800083681BB1588A404200B2704700207047D4
:104190002DE9F843074601F052FA80460024284EE4
:1041A00000E0013444450FD2BB681B6853F824502B
:1041B0002449284602F0E4F80028F2D1B5F91A3073
:1041C0009E42B8BF1E46ECE710220021384603F09D
:1041D000D3FC054611220021384603F0CDFC0446ED
:1041E00032220021384603F0C7FC8046144B9E4221
:1041F00006D07B8BE31A10FA83F316FA83F636B2F5
:10420000384604F06DFD81464FEA48081FFA88F8E9
:10421000384604F0CEFB80B22D1A14FA85F418FA51
:1042200084F419FA84F4A4B23846FFF7A1FF80B2EF
:10423000201A00B2B042B8BF3046BDE8F88300BFD4
:1042400001E0FFFF010004002DE9F84F05461622AA
:10425000002103F091FCC0B2012807D0AB68002B0D
:104260005DD0188A404200B2BDE8F88F13220021C9
:10427000284603F081FC074612220021284603F05D
:104280007BFC804632220021284603F075FC8246E2
:10429000284601F0D4F9834641F6FF79002400E076
:1042A00001345C450FD2AB681B6853F824601D498C
:1042B000304602F065F80028F2D1B6F9143099457D
:1042C000A8BF9946ECE741F6FF73994525D0A88A27
:1042D00040441AFA80F080B2A0EB090004B22846EC
:1042E00004F0F1FB81464FEA4A0A1FFA8AFA28468F
:1042F00004F058FB80B23F1A18FA87F61AFA86F6CD
:1043000019FA86F6B6B22846FFF72AFF16FA80F0A9
:1043100000B2A042B8BF2046A6E7034CDFE700206A
:10432000A2E700BF0100040001E0FFFF2DE9F84310
:1043300006461622002103F01FFCC0B2012805D159
:10434000B368002B55D0B3F9100050E0304601F0AF
:1043500076F980460024284D00E0013444450FD210
:10436000B3681B6853F824702449384602F008F8F3
:104370000028F2D1B7F918309D42B8BF1D46ECE7CE
:1043800013220021304603F0F7FB044612220021DD
:10439000304603F0F1FB814632220021304603F023
:1043A000EBFB0746144B9D4206D0308B201A17FAC0
:1043B00080F015FA80F52DB2304604F084FB80467B
:1043C0007F00BFB2304604F0EDFA80B2241A19FA29
:1043D00084F417FA84F418FA84F4A4B23046FFF790
:1043E000BFFE80B2241A20B2A842B8BF2846BDE85A
:1043F000F8830020FBE700BF01E0FFFF010004009D
:1044000038B505460C460D4906F032FB68B1806AA6
:10441000404200B220800A49284606F029FB40B1FC
:10442000806A404200B2608038BD2846FFF798FE9F
:10443000F0E72846FFF79CFEF5E700BFAB44000815
:104440009144000870B551EA020302D101252846C3
:1044500070BD15460E46044602F0BEF9A268138AE6
:1044600033441382A268538A2B44538201232A4681
:104470003146204604F0ECFC00220B21204602F0DD
:1044800095FF05460128E2D1204604F06BFEDEE7E9
:1044900038B505460C46FFF76BFE14FA80F212B2EF
:1044A00000212846FFF7CEFF38BD38B505460C463B
:1044B000FFF756FE14FA80F1002209B22846FFF7F2
:1044C000C1FF38BDF0B593B051EA020412D01646D0
:1044D0000D460446012B0FD03E4906F053FA3E49E3
:1044E000204606F04FFA00220921204602F05EFF26
:1044F000012861D013B0F0BD01F06CF8074601A8A7
:1045000006F026FA0194354B049395B9002EF1D0AC
:10451000384609F08BFD3246002140F35D0006F07D
:10452000BFFAC7282FD9B0F5C87F2DD94FF4C8706E
:104530002AE0384609F062FD2A46002140F35D007A
:1045400006F0AEFAC72805D9B0F5C87F03D94FF4F5
:10455000C87000E0C8200C902046FFF701FE4342DF
:10456000281A09930A930B901B4B02931C4B089338
:1045700001AA0921204602F019FF0128BAD101A899
:1045800006F032FAC2E7C8200C902046FFF7F0FD93
:104590004342301A09930A930B900E4B0293104B2F
:1045A000089301AA0921204602F000FF0128A1D1A9
:1045B00001A806F019FA9DE7324629462046FFF782
:1045C00041FF012896D100220A21204602F0EEFE8A
:1045D00090E700BF91440008AB440008A1400008E8
:1045E000BBAA00082DE9F04751EA020401D1BDE859
:1045F000F087984616460C46074605F0B9FA384645
:10460000FFF7AEFD1FFA80F9A4B2A4EB090424B2AF
:1046100016220021384603F0AFFAC0B201282CD090
:10462000002C16DD00243846FFF7A2FD85B2B6B295
:10463000761B36B2002E37DD00264C4421B22E44C4
:1046400032B251EA0203D2D043463846FFF73AFF6E
:10465000CDE7E8DA3846FFF7F7FD85B23846FFF7D1
:1046600065FE15FA80F000B2002804DB43429C424C
:10467000D9DA1CB2D7E70020F8E7002C12DBD2DD34
:104680003846FFF7E1FD85B23846FFF74FFE15FAD1
:1046900080F000B2002803DBA042C4DA0446C2E77F
:1046A0000020F9E70024BEE7C7DA3846FFF768FDC7
:1046B0001FFA80FA3846FFF76BFD1AFA80F000B255
:1046C000002804DB43429E42B7DA1EB2B5E7002061
:1046D000F8E7000070B505460C461646064906F098
:1046E00051F92846FFF73CFD011B3346002209B271
:1046F0002846FFF777FF70BDAB44000870B505464C
:104700000C461646064906F03DF92846FFF730FDEF
:10471000021B334612B200212846FFF763FF70BD2B
:104720009144000870B5054616461C461A46FFF728
:10473000D1FF224631462846FFF7E0FF70BD00005A
:104740002DE9F04F89B082460C46039191460193C2
:10475000084600F02DFF0646102101F00AFE002851
:1047600000F049813046FFF7E3FC02903046FFF746
:10477000EFFC059000284AD004F1140832220021F1
:10478000304603F0F9F9074610220021304603F0C5
:10479000F3F9BFB217FA80F084B21122002130463B
:1047A00003F0EAF917FA80F01FFA80FBF58A254436
:1047B000ADB2B8F80230ED1AADB2B9F80220AD1AB8
:1047C0002DB2B8F90610738BABEB030311FA83F328
:1047D00012FA83F39BB207931BB20493304604F0A2
:1047E000E8F880B2001B80B2A0EB0B0002B2069288
:1047F000049B002DA8BF002B1ADA002D09DD3046DE
:10480000FFF7BEFC401B002813DA002511E0D0465C
:10481000B4E7049B002B01DC00250AE0079B5D4206
:104820002DB23046FFF7B4FCE84202D5002500E087
:104830000025059B022B48D0032B56D0012B37D0E7
:104840003046FFF77DFC834610B1039B03F1140A49
:1048500012220021304603F08FF917FA80F01FFA78
:1048600080F813220021304603F086F917FA80F70A
:10487000BFB2B48A4444A4B2BAF80030E41AA4B275
:10488000B9F80020A41A24B2BAF90410338BFB1A29
:1048900011FA83F312FA83F39BB21AB2002CA8BF69
:1048A000002A56DA002C43DC002A49DC002451E0BF
:1048B000F08A0444A4B2B8F80230AAB29D18ADB28E
:1048C000651B12FA85F52DB2BAE7708BA0EB0B0BC6
:1048D0001FFA8BFBB8F80630AAB29D18ADB2ABEB4D
:1048E000050512FA85F52DB2AAE7F38A23449BB297
:1048F000069A1446002A17DB03EB64039BB2B8F850
:104900000620B8F80210521A92B2013212B2002AEE
:104910000CDB01EB6202ADB215FA82F292B29B1A85
:1049200015FA83F52DB28BE70134E5E70132F0E7A4
:104930003046FFF789FC001B00280BDA002409E051
:104940005C4224B23046FFF7F1FCE04202D500247D
:1049500000E00024304604F025F880B2A0EB080007
:1049600080B2C01B00B2BBF1020F56D0BBF1030FE7
:1049700060D0BBF1010F41D04849304606F002F843
:1049800007464749304605F0FDFF384310F0FF0F5A
:1049900073D1029B13F0010F01D1002C75DB029B38
:1049A00013F0020F02D1002C00DD0024029B13F053
:1049B000040F01D1002D6ADB029B13F0080F02D116
:1049C000002D00DD0025B9F80030019A002A60D0E2
:1049D000A2B21344A9F80030B9F80230019A002AB3
:1049E00059D0AAB21344A9F80230019B2A462146A5
:1049F0003046FFF767FD09B0BDE8F08FB08A80440C
:104A00001FFA88F8BAF80030A2B29C18A4B2A8EB3A
:104A1000040412FA84F424B2AEE7308BC71BBFB291
:104A2000BAF80430A2B29C18A4B23C1B12FA84F467
:104A300024B2A1E7B38A43449BB28046002817DB27
:104A400003EB68039BB2BAF80420BAF80010521ABC
:104A500092B2013212B2002A0DDB01EB6202A4B263
:104A600014FA82F292B29B1A14FA83F424B283E706
:104A700000F10108E4E70132EFE700220A213046A5
:104A800002F094FC0128B6D183E7002487E70025D3
:104A900092E700229DE70022A4E700BF91440008AE
:104AA000AB44000830B583B004460D4605F060F80D
:104AB0000023ADF80430ADF806302B4601AA21469C
:104AC00004F11400FFF73CFE03B030BD70B582B0B6
:104AD00005460E4605F04CF80023ADF80430ADF85D
:104AE0000630284600F064FD044629460AE03346B5
:104AF00001AA05F11400FFF723FE204600F058FD3F
:104B000021460446002CF2D102B070BD2DE9F04FD1
:104B100095B004460846039116464FF0FF350095C0
:104B20002B460022114605F01DFB00952B46002266
:104B30001146304605F016FB1021204601F019FC05
:104B400028B107462046FFF7EBFA804610B915B0AA
:104B5000BDE8F08F002009F0A9FA0546B8F1020F70
:104B60000CD14DB1284603F037FD844204D02846CD
:104B700009F09CFA0546F4E7002DE8D02046FFF73F
:104B8000FFFA83462046FFF703FB04902046FFF719
:104B90005BFB06902046FFF7C9FB05902046FFF718
:104BA000C7FA824610F00C0F1FD0B8F1010F2CD0BD
:104BB000B8F1030F05D0B8F1020F0ED04FF0000985
:104BC00015E0049B002BD8BFBBF1000FCCBF4FF00A
:104BD00001094FF000090ADCEDE7284603F0ECFC80
:104BE0000C2814D04FF0000901E04FF000091AF032
:104BF000030F20D0B8F1010F1ED0B8F1030F08D079
:104C0000B8F1020F10D0002716E0B946EFE7B94619
:104C1000EDE7069B059A002AD8BF002BCCBF0123E5
:104C20000023EDDD1F4607E0284603F0C5FC0328FE
:104C300002D0002700E00027B9F1000F01D1002FBA
:104C400085D016224FF48031204602F095FFC3B282
:104C50000A9310224FF48031204602F08DFF12900B
:104C600003B20C9311224FF48031204602F084FFEE
:104C7000089003B20B9312224FF48031204602F0C9
:104C80007BFF119003B2109313224FF48031204622
:104C900002F072FF0E9003B20F9301224FF48031A5
:104CA000204602F069FF09900FFA80FA204603F0CF
:104CB00080FE0546204603F075FE0790B9F1000F0F
:104CC00000F04181CDF834A00FB94FF0000A212245
:104CD0004FF48031204602F04FFFC0B2012840F26D
:104CE00035811FFA85F8C344049B13FA8BFB1FFA26
:104CF0008BFB0FFA8BF2002A0CBF002309F0010393
:104D0000002B6FD0B4F916307380B4F91A30F380E9
:104D10000A9B012B00F02581238B0E995B1A9BB215
:104D2000B38009995B1A9BB2013333800C9BEB1A59
:104D30000B995B1ACDF84CA0A3EB0A0303FB05F516
:104D400095FBF2F52DB2A946002009F087F900EB9A
:104D5000800043005033B3F5A07F80F20D81012322
:104D6000994540F31781BDF84820A8EB02039BB298
:104D7000BDF82090A3EB09039BB21FFA8AFAA3EBBC
:104D80000A039BB2ADB25B1B9BB219B2ABEB080836
:104D90000FFA88F8B8F1000F40F31781049800FB70
:104DA00001F090FBF8F15B1AE18A11FA83F312FA31
:104DB00083F39BB219B271802B449BB2013BF38009
:104DC000B4F916000C9B03449942C0F20B81B6F96A
:104DD0000610B4F91A20139BD31A0B981B1A994288
:104DE00000F33E81BDF81CA0069B53441D46059B65
:104DF00013FA85F5ADB22AB2002A0CBF002307F0E2
:104E00000103002B3FF4A3AE638B08995B1A9BB29E
:104E10000399CB8009981B1A9BB201334B80B4F9DC
:104E200014300B80B4F918308B80079B10995E1AF0
:104E30000F99761A0D998B46761A06FB03F696FBA8
:104E4000F2F636B2B046002009F008F900EB800017
:104E500043005033B3F5A07F80F24481012398458D
:104E600040F34E81BDF84410AAEB01039BB2BDF89C
:104E70003880A3EB08039BB2BDF83490A3EB090381
:104E80009BB2B6B29B1B9BB21AB2A5EB0A052DB220
:104E9000002D40F35081059800FB02F090FBF5F2E5
:104EA0009B1A9BB20A9A012A00F06481A28A1344D9
:104EB00011FA83F39BB21AB20398028033449BB277
:104EC000013B8380B4F91400109B03449A42C0F262
:104ED000F381039BB3F90410B4F91820A2EB0B0380
:104EE0000F981B1A99427FF732AE94B2A4EB0904D3
:104EF000A4B2A4EB080424B2039B9C80002009F018
:104F0000ADF800EB800043005033B3F5A07F80F292
:104F100015820123E41A039BB3F900309C42BFF6CB
:104F200016AE039B9C88002009F098F800EB8000E7
:104F300043005033B3F5A07F80F20E820123E31AC1
:104F4000039A138003E600230D93BDE631224FF44C
:104F50008031204602F010FEC0B201283FF6C1AEFB
:104F6000F5E5A38A11990B449BB2338009990B4450
:104F70009BB2013BB380D9E6002009F06FF800EB4B
:104F8000800043005033CB4A82FB0312DB17C3EB94
:104F9000A213E5E6002009F061F800EB8000430071
:104FA0005033B3F5A07F01DA0125DCE6002009F0DB
:104FB00055F800EB800043005033BE4A82FB0312D9
:104FC000DD17C5EBA2152DB2CDE6E38A1A44728037
:104FD000638BA3EB09039BB2A3EB0A039BB2013BD8
:104FE000F380FFE612FA80F215B27580002009F016
:104FF00035F800EB800043005033B3F5A07F15DA9D
:1050000001231D44B6F906309D427FF7E0AE758856
:10501000002009F023F800EB800043005033B3F583
:10502000A07F11DA01232B44F380D0E6002009F0A1
:1050300015F800EB8000430050339E4A82FB0312B8
:10504000DB17C3EBA213DCE7002009F007F80A2303
:1050500003FB00F35033A02293FBF2F39BB2E2E791
:1050600095B2A5EB0A05ADB2A5EB09052DB2F58009
:10507000002008F0F3FF00EB800043005033B3F54D
:10508000A07F15DA0123ED1AB6F902309D42BFF672
:10509000A9AEF588002008F0E1FF00EB8000430096
:1050A0005033B3F5A07F11DA0123EB1A738099E630
:1050B000002008F0D3FF00EB8000430050337D4A0E
:1050C00082FB0312DB17C3EBA213DCE7002008F01E
:1050D000C5FF0A2303FB00F35033A02293FBF2F336
:1050E0009BB2E2E7002008F0B9FF00EB800043002C
:1050F0005033704A82FB0312DB17C3EBA213AEE6F8
:10510000002008F0ABFF00EB800043005033B3F504
:10511000A07F01DA0126A5E6002008F09FFF00EB42
:10512000800043005033634A82FB0312DE17C6EB54
:10513000A21636B296E60A9B012B0DD0A38A19441B
:10514000039A1180238BA3EB08039BB2A3EB090303
:105150009BB2013B9380FAE4A38A0B4419FA83F3D0
:105160009BB2013B039A1380238BA3EB0808A2F8A0
:105170000480ECE4A28A134411FA83F319FA83F34E
:105180009BB21AB20398028033449BB2013B8380E6
:10519000B4F91400109B03449B445A4532DB039B33
:1051A000B3F90410B4F918300F9A9A1A91427FF7A4
:1051B000CEAC9CB2A4EB080424B2039B9C800020DC
:1051C00008F04CFF00EB800043005033B3F5A07FA4
:1051D00058DA0123E31A039AB2F900209342BFF68A
:1051E000B6AC039B9C88002008F038FF0A2303FB21
:1051F00000F35033B3F5A07F4FDA0123E31A039A8B
:105200001380A4E411FA80F519FA85F52DB2039BF9
:105210001D80002008F022FF00EB80004300503387
:10522000B3F5A07F17DA01232B44039AB2F90420C7
:105230009342B4DD039B1D88002008F00FFF0A2372
:1052400003FB00F35033B3F5A07F0FDA01232B44A7
:10525000039A9380A3E7002008F000FF0A2303FBD2
:1052600000F35033A02293FBF2F3DDE7002008F0B7
:10527000F5FE0A2303FB00F35033A02293FBF2F365
:105280009BB2E4E7002008F0E9FE0A2303FB00F3E9
:105290005033A02293FBF2F39CE7002008F0DEFEDF
:1052A0000A2303FB00F35033A02293FBF2F39BB2DB
:1052B000A4E700BF6766666611FA80F10DB2039B32
:1052C0001D80002008F0CAFE00EB80004300503330
:1052D000B3F5A07F18DA01212944039BB3F9043008
:1052E00099427FF7F6AD039B1D88002008F0B6FEBB
:1052F00000EB800043005033B3F5A07F12DA0123A6
:105300002B44039A9380E4E5002008F0A7FE00EB0D
:10531000800043005033164A82FB0312D917C1EBB9
:10532000A211D9E7002008F099FE0A2303FB00F33D
:105330005033A02293FBF2F39BB2E1E7002008F088
:105340008DFE00EB800043005033094A82FB0312BC
:10535000DB17C3EBA213DDE5002008F07FFE0A2374
:1053600003FB00F35033A02293FBF2F39BB2E6E57C
:105370006766666610B584B004466A4602A9FFF700
:10538000C5FB02A804F001FF18B9684604F0FDFE51
:1053900038B102A804F0F9FE28B9684604F0F5FE19
:1053A00030B904B010BD02A9204603F0B3FEF4E703
:1053B0006946204603F0AEFEF3E7F8B504460D4615
:1053C000FEF7C6FE20B12046FEF7BAFED8B1F8BD02
:1053D0002046FEF7D5FE06462046FEF7D9FEC0F36E
:1053E000C033002ED4BF002303F00103002BEAD00A
:1053F0004242B242A8BF32462B4612B2002120469A
:10540000FFF760F8DFE72046FEF71EFF074620465D
:10541000FEF78CFF064616220021204602F0ACFB68
:10542000C0B2012813D0C6F3C033002FD4BF00236D
:1054300003F00103002BCAD07642BE42A8BF3E460D
:105440002B46002231B22046FFF73CF8BFE7C7F3F6
:10545000C033002ED4BF002603F00106002EB6D0C4
:105460002B46002239462046FFF72CF8AFE708B557
:1054700013460A46012102F0FFFD08BD08B5134698
:105480000A46022102F0F8FD08BD08B513460A4697
:10549000032102F0F1FD08BD08B513460A460421B8
:1054A00002F0EAFD08BD08B513460A46072102F0DE
:1054B000E3FD08BD08B513460A46082102F0DCFDED
:1054C00008BD08B513460A46092102F0D5FD08BDFE
:1054D00008B513460A46102102F0CEFD08BD08B5F6
:1054E00013460A46112102F0C7FD08BD08B5134650
:1054F0000A46122102F0C0FD08BD08B513460A464F
:10550000132102F0B9FD08BD10B582B00023ADF83B
:1055100000301C4663F31F4461F30F041346224618
:10552000202102F0A9FD02B010BD08B513460A46BD
:10553000212102F0A1FD08BD08B513460A46282125
:1055400002F09AFD08BD10B582B00023ADF800301E
:105550001C4663F31F4461F30F0413462246552192
:1055600002F08AFD02B010BD08B513460A465B2161
:1055700002F082FD08BD08B513460A46642102F018
:105580007BFD08BD08B513460A460A2102F074FDEA
:1055900008BD08B513460A46162102F06DFD08BD88
:1055A00008B50146014806F01FFA08BDFF5700087C
:1055B00008B1406870470020704710B5044600E00D
:1055C0001C462046FFF7F4FF03460028F8D120468A
:1055D00010BD000010B50446436813B1FFF7EDFF9E
:1055E00004460A4808F0B0FB78B10023426A9A42A8
:1055F00006D9C26852F82320A24206D00133F5E74B
:105600000146024808F0AAFBEEE710BD28A70120DA
:10561000836883B1002907DB0A46586890420CD999
:105620001B6853F8210070475A6811440A46002944
:10563000F3DA00207047002070470020704783682D
:105640000BB1586870470020704770B50646FFF7E9
:10565000AFFF90B1054600242846FFF7F0FFA042B7
:1056600007D921462846FFF7D3FF864203D00134ED
:10567000F2E74FF0FF34204670BD0024FBE770B521
:1056800005460022212101F091FE00287AD0002158
:105690002846FFF7BDFF05E0FFF7F1FF0021284690
:1056A000FFF7B6FF0028F7D1284600F071FE064646
:1056B000002008F0FBFC04460DE02946204602F0DD
:1056C000FFFE636BAB420ED0636DB3420ED020463B
:1056D00008F0ECFC044694B1A36AAB42EDD0E36A57
:1056E000AB42EED1E9E700236363EDE702F098FFF8
:1056F0008542ECD12946204602F0E2FEE7E7284643
:1057000001F0AFFC6B681BB12846FFF79EFF27E056
:105710002846FFF75FFF04460023626A9A420DD9CC
:10572000E26852F82320AA4208D00133F5E7E16885
:105730005A1C51F8220041F823001346616A0139CE
:105740009942F4D861628900E06808F07BF8E06073
:1057500015E01268431C52F8231042F82010184636
:105760006B689A685368013B8342F2D853606B6858
:105770009C6861688900206808F064F82060284609
:1057800008F044F870BDF8B5054603F0EBFC284678
:10579000FFF70EFF044608B1FFF7ECFDECB1002661
:1057A00037462846FFF76BFF9CB1204604F0E0F92E
:1057B00000212046FFF701FE2046FFF7DBFD002217
:1057C0002221204601F0F2FD00222421204601F092
:1057D000EDFD0EB100233B61F8BD2846FFF7FAFE50
:1057E00007460028F8D00369AB4201D00026D8E76D
:1057F0000126D6E708B50068FFF7C5FF08BD08B564
:10580000FFF7C1FF08BD10B5044603F0ABFC002153
:105810002046FFF7FDFE05E0FFF731FF002120469F
:10582000FFF7F6FE0028F7D100231A461946204656
:10583000FEF778FFA3681BB100221A82A3685A8280
:1058400010BDF8B54368002B60D000295ED00F462C
:10585000064603F087FC384600F0BEFF7568304608
:10586000FFF7F3FE044607E0AB681A68631C52F8C2
:10587000231042F824101C462846FFF7E0FE0238A9
:10588000A042F1DAAA685368013B5360AC686168D2
:1058900000293CD08900206807F0D4FF2060BA6856
:1058A000536801335360BC6861688900206807F061
:1058B000C9FF2060BB681C683846FFF7C0FE6FF068
:1058C0004043034444F82360776000212846FFF7F3
:1058D00074FD2846FFF74EFD32462221284601F08E
:1058E00065FD00222421284601F060FD3246222178
:1058F000384601F05BFD00222321384601F056FDB9
:10590000304602F0ABFF304603F02CFCF8BD2068B7
:1059100007F07CFFAB6800221A60C0E7F8B50746C5
:105920000D1E11DB3846FFF790FE04463846FFF7A0
:105930003FFE0646002D25DBFFF781FEA84221DD54
:10594000A5421FD010DB26E0FFF732FEFFF777FEFF
:105950000544E7E7B3681A686FF04043234452F800
:10596000233042F82430013CA542F3DBB3681B68C6
:1059700043F8257000222221304601F017FD304601
:1059800003F0F0FBF8BDB3681A68631C52F82310EB
:1059900042F824101C46A542F5DCE7E738B504467A
:1059A0000D46406828B9236813B129462046984718
:1059B00038BDFFF7F3FFF6E708B520B1FFF70AFEA1
:1059C00001F0EEFB08BD08F013FBF9E738B504461B
:1059D000FFF7F2FF48B10546044A0021204602F0D5
:1059E00047FC21462846FFF7D9FF38BDFFFF0F00CF
:1059F00008B5FFF7E1FF08B1008A08BD112005F0E6
:105A00004DF9FAE70346E0B1032907D00C291AD172
:105A1000B0F926201B68597E00200FE0B0F9242041
:105A2000F8E7104400B2C1F1640303FB02F3074A34
:105A300082FB03C2DB17C3EB62131AB2002AF0D158
:105A40007047002070470020704700BF1F85EB5152
:105A500038B505460C4608461FF000F921224FF4E0
:105A60008031284602F088F8C0B2E07002283DD8A4
:105A700031224FF48031284602F07EF8C0B284F81B
:105A8000220002283AD845224FF48031284602F0FD
:105A900073F8C0B284F83600022845D860224FF46B
:105AA0008031284602F068F8C3B2FC2B0CD8E378AA
:105AB000C0B200FB03F31B0AE37000FB03F0000A13
:105AC00084F8220084F83600E37833B994F8223061
:105AD0001BB994F83630002B43D00B224FF48031A1
